:020000040800F2
:1000000068060020650100088B0100088D010008CA
:1000100000000000000000000000000000000000E0
:100020000000000000000000000000008F01000838
:10003000000000000000000091010008930100088A
:100040009501000895010008950100089501000838
:100050009501000895010008950100089501000828
:1000600000000000950100089501000895010008B6
:1000700095010008950100080000000095010008A6
:100080000000000000000000000000000000000070
:100090009501000800000000000000009501000824
:1000A00000000000950100080000000000000000B2
:1000B0009501000895010008000000000000000004
:1000C00000F002F800F03EF80CA030C80838241800
:1000D0002D18A246671EAB4654465D46AC4201D180
:1000E00000F030F87E460F3E0FCCB6460126334274
:1000F00000D0FB1AA246AB4633431847C4020000A7
:10010000E4020000103A02D378C878C1FAD8520746
:1001100001D330C830C101D504680C6070470000BD
:100120000023002400250026103A01D378C1FBD813
:10013000520700D330C100D50B6070471FB51FBDFB
:1001400010B510BD00F04BF81146FFF7F7FF00F0B7
:1001500078F800F063F803B4FFF7F2FF03BC00F097
:1001600069F800000F4880F308880F480168090EFD
:100170000E4A914205D10E480E4901600E480F49C2
:1001800001600F4880470F480047FEE7FEE7FEE7A3
:10019000FEE7FEE7FEE700000B480C490C4A0D4B5A
:1001A0007047000068060020040000001F000000E7
:1001B0003410024001000000000001400000000077
:1001C00059020008C10000086800002068060020ED
:1001D000680200206802002070477047704775462B
:1001E00000F024F8AE46050069465346C008C0003A
:1001F000854618B020B5FFF7CFFF60BC002749083F
:10020000B6460026C0C5C0C5C0C5C0C5C0C5C0C5AE
:10021000C0C5C0C5403D49008D46704710B5044675
:10022000C046C0462046FFF796FF10BD0048704705
:100230000400002001491820ABBEFEE726000200A2
:10024000704710B500F092F800F0ACF800F09CF8A0
:1002500000F0A9F8002010BD3B480068FF210131E3
:100260000843394908600846C0683849084036499B
:10027000C8600846006836490840334908600846A7
:1002800080684008400088600846006801218904B1
:1002900088432D4908600846C068FD210904884349
:1002A0002949C860002008610846806B090408439A
:1002B00025498863274800688914884325490860D0
:1002C00021480068012108431F4908600846C068AA
:1002D000F02188431C49C8600846C0687021084363
:1002E0001949C8600846C0680721090288431649B1
:1002F000C8600846C0680B21090208431249C8605B
:100300000846C0680721C90288430F49C8600846EB
:10031000C0680D21090308430B49C8600846C0683E
:1003200080088000C8600846C0680121084306496B
:10033000C8600846806B09048843034988630648FF
:100340000649086070470000001002400C40FF881A
:10035000F6FFF6FE007000400024F40000000020CC
:1003600000207047002070470020704710B5044CF3
:1003700002E020688047241D02488442F9D310BD62
:10038000B4030008B803000810B5044C02E020686C
:100390008047241D02488442F9D310BDB8030008E9
:1003A000BC030008704700BFFEE700207047000054
:1003B000AB03000865030008610300086903000837
:1003C000E003000800000020040000000401000811
:1003D000E403000804000020640600002001000877
:0403E0000000000019
:04000005080000C12E
:00000001FF
