:020000040800F2
:1000000060060020490100086F0100087101000826
:1000100000000000000000000000000000000000E0
:100020000000000000000000000000007301000854
:1000300000000000000000007501000877010008C2
:1000400079010008790100087901000879010008A8
:100050007901000879010008790100087901000898
:10006000000000007901000879010008790100080A
:1000700079010008790100080000000079010008FA
:100080000000000000000000000000000000000070
:10009000790100080000000000000000790100085C
:1000A00000000000790100080000000000000000CE
:1000B000790100087901000800000000000000003C
:1000C00000F002F800F030F80CA030C8083824180E
:1000D0002D18A246671EAB4654465D46AC4201D180
:1000E00000F022F87E460F3E0FCCB6460126334282
:1000F00000D0FB1AA246AB4633431847A4010000C8
:10010000B40100000023002400250026103A01D38A
:1001100078C1FBD8520700D330C100D50B607047BF
:100120001FB51FBD10B510BD00F04BF81146FFF70D
:10013000F7FF00F078F800F063F803B4FFF7F2FF80
:1001400003BC00F069F800000F4880F308880F48EE
:100150000168090E0E4A914205D10E480E49016010
:100160000E480F4901600F4880470F480047FEE7DF
:10017000FEE7FEE7FEE7FEE7FEE700000B480C495E
:100180000C4A0D4B70470000600600200400000080
:100190001F00000034100240010000000000014078
:1001A000000000003D020008C100000860000020BF
:1001B0006006002060020020600200207047704747
:1001C0007047754600F024F8AE4605006946534670
:1001D000C008C000854618B020B5FFF7CFFF60BC4F
:1001E00000274908B6460026C0C5C0C5C0C5C0C561
:1001F000C0C5C0C5C0C5C0C5403D49008D4670479B
:1002000010B50446C046C0462046FFF796FF10BD15
:10021000004870470000002001491820ABBEFEE7EF
:1002200026000200704710B500F010F800F02AF820
:1002300000F01AF800F027F8002010BD70470020E9
:1002400070470020704700207047000010B5044C34
:1002500002E020688047241D02488442F9D310BD83
:10026000940200089802000810B5044C02E02068CF
:100270008047241D02488442F9D310BD980200082B
:100280009C020008704700BFFEE700207047000096
:100290008B020008430200083F02000847020008E2
:1002A000B002000800000020600600000401000801
:04000005080000C12E
:00000001FF
